{
  "_format": "hh-sol-artifact-1",
  "contractName": "UniswapV3Factory",
  "sourceName": "contracts/core/UniswapV3Factory.sol",
  "abi": [
    {
      "inputs": [],
      "stateMutability": "nonpayable",
      "type": "constructor"
    },
    {
      "anonymous": false,
      "inputs": [
        {
          "indexed": true,
          "internalType": "uint24",
          "name": "fee",
          "type": "uint24"
        },
        {
          "indexed": true,
          "internalType": "int24",
          "name": "tickSpacing",
          "type": "int24"
        }
      ],
      "name": "FeeAmountEnabled",
      "type": "event"
    },
    {
      "anonymous": false,
      "inputs": [
        {
          "indexed": true,
          "internalType": "address",
          "name": "oldOwner",
          "type": "address"
        },
        {
          "indexed": true,
          "internalType": "address",
          "name": "newOwner",
          "type": "address"
        }
      ],
      "name": "OwnerChanged",
      "type": "event"
    },
    {
      "anonymous": false,
      "inputs": [
        {
          "indexed": true,
          "internalType": "address",
          "name": "token0",
          "type": "address"
        },
        {
          "indexed": true,
          "internalType": "address",
          "name": "token1",
          "type": "address"
        },
        {
          "indexed": true,
          "internalType": "uint24",
          "name": "fee",
          "type": "uint24"
        },
        {
          "indexed": false,
          "internalType": "int24",
          "name": "tickSpacing",
          "type": "int24"
        },
        {
          "indexed": false,
          "internalType": "address",
          "name": "pool",
          "type": "address"
        }
      ],
      "name": "PoolCreated",
      "type": "event"
    },
    {
      "inputs": [
        {
          "internalType": "address",
          "name": "tokenA",
          "type": "address"
        },
        {
          "internalType": "address",
          "name": "tokenB",
          "type": "address"
        },
        {
          "internalType": "uint24",
          "name": "fee",
          "type": "uint24"
        }
      ],
      "name": "createPool",
      "outputs": [
        {
          "internalType": "address",
          "name": "pool",
          "type": "address"
        }
      ],
      "stateMutability": "nonpayable",
      "type": "function"
    },
    {
      "inputs": [
        {
          "internalType": "uint24",
          "name": "fee",
          "type": "uint24"
        },
        {
          "internalType": "int24",
          "name": "tickSpacing",
          "type": "int24"
        }
      ],
      "name": "enableFeeAmount",
      "outputs": [],
      "stateMutability": "nonpayable",
      "type": "function"
    },
    {
      "inputs": [
        {
          "internalType": "uint24",
          "name": "",
          "type": "uint24"
        }
      ],
      "name": "feeAmountTickSpacing",
      "outputs": [
        {
          "internalType": "int24",
          "name": "",
          "type": "int24"
        }
      ],
      "stateMutability": "view",
      "type": "function"
    },
    {
      "inputs": [
        {
          "internalType": "address",
          "name": "",
          "type": "address"
        },
        {
          "internalType": "address",
          "name": "",
          "type": "address"
        },
        {
          "internalType": "uint24",
          "name": "",
          "type": "uint24"
        }
      ],
      "name": "getPool",
      "outputs": [
        {
          "internalType": "address",
          "name": "",
          "type": "address"
        }
      ],
      "stateMutability": "view",
      "type": "function"
    },
    {
      "inputs": [],
      "name": "owner",
      "outputs": [
        {
          "internalType": "address",
          "name": "",
          "type": "address"
        }
      ],
      "stateMutability": "view",
      "type": "function"
    },
    {
      "inputs": [],
      "name": "parameters",
      "outputs": [
        {
          "internalType": "address",
          "name": "factory",
          "type": "address"
        },
        {
          "internalType": "address",
          "name": "token0",
          "type": "address"
        },
        {
          "internalType": "address",
          "name": "token1",
          "type": "address"
        },
        {
          "internalType": "uint24",
          "name": "fee",
          "type": "uint24"
        },
        {
          "internalType": "int24",
          "name": "tickSpacing",
          "type": "int24"
        }
      ],
      "stateMutability": "view",
      "type": "function"
    },
    {
      "inputs": [
        {
          "internalType": "address",
          "name": "_owner",
          "type": "address"
        }
      ],
      "name": "setOwner",
      "outputs": [],
      "stateMutability": "nonpayable",
      "type": "function"
    }
  ],
  "bytecode": "0x60a060405234801561001057600080fd5b503060601b608052600380546001600160a01b031916339081179091556040516000907fb532073b38c83145e3e5135377a08bf9aab55bc0fd7c1179cd4fb995d2a5159c908290a36101f4600081815260046020527ffb8cf1d12598d1a039dd1d106665851a96aadf67d0d9ed76fceea282119208b7805462ffffff1916600a908117909155604051909291600080516020615fff83398151915291a3610bb8600081815260046020527f72dffa9b822156d9cf4b0090fa0b656bcb9cc2b2c60eb6acfc20a34f54b31743805462ffffff1916603c908117909155604051909291600080516020615fff83398151915291a3612710600081815260046020527f8cc740d51daa94ff54f33bd779c2d20149f524c340519b49181be5a08615f829805462ffffff191660c8908117909155604051909291600080516020615fff83398151915291a360805160601c615e8b610174600039806105515250615e8b6000f3fe608060405234801561001057600080fd5b506004361061007d5760003560e01c8063890357301161005b578063890357301461013b5780638a7c195f146101855780638da5cb5b146101b0578063a1671295146101b85761007d565b806313af4035146100825780631698ee82146100aa57806322afcccb14610102575b600080fd5b6100a86004803603602081101561009857600080fd5b50356001600160a01b03166101f4565b005b6100e6600480360360608110156100c057600080fd5b5080356001600160a01b03908116916020810135909116906040013562ffffff16610267565b604080516001600160a01b039092168252519081900360200190f35b6101246004803603602081101561011857600080fd5b503562ffffff16610293565b6040805160029290920b8252519081900360200190f35b6101436102a8565b604080516001600160a01b0396871681529486166020860152929094168383015262ffffff16606083015260029290920b608082015290519081900360a00190f35b6100a86004803603604081101561019b57600080fd5b5062ffffff813516906020013560020b6102de565b6100e66103a1565b6100e6600480360360608110156101ce57600080fd5b5080356001600160a01b03908116916020810135909116906040013562ffffff166103b0565b6003546001600160a01b0316331461020b57600080fd5b6003546040516001600160a01b038084169216907fb532073b38c83145e3e5135377a08bf9aab55bc0fd7c1179cd4fb995d2a5159c90600090a3600380546001600160a01b0319166001600160a01b0392909216919091179055565b60056020908152600093845260408085208252928452828420905282529020546001600160a01b031681565b60046020526000908152604090205460020b81565b600054600154600280546001600160a01b03938416939283169281169162ffffff600160a01b83041691600160b81b9004900b85565b6003546001600160a01b031633146102f557600080fd5b620f42408262ffffff161061030957600080fd5b60008160020b13801561032057506140008160020b125b61032957600080fd5b62ffffff8216600090815260046020526040902054600290810b900b1561034f57600080fd5b62ffffff828116600081815260046020526040808220805462ffffff1916600287900b958616179055517fc66a3fdf07232cdd185febcc6579d408c241b47ae2f9907d84be655141eeaecc9190a35050565b6003546001600160a01b031681565b60006103ba610546565b826001600160a01b0316846001600160a01b031614156103d957600080fd5b600080846001600160a01b0316866001600160a01b0316106103fc5784866103ff565b85855b90925090506001600160a01b03821661041757600080fd5b62ffffff8416600090815260046020526040902054600290810b9081900b61043e57600080fd5b6001600160a01b0383811660009081526005602090815260408083208685168452825280832062ffffff8a168452909152902054161561047d57600080fd5b61048a308484888561057d565b6001600160a01b03808516600081815260056020818152604080842089871680865290835281852062ffffff8e168087529084528286208054988a166001600160a01b0319998a1681179091558287529484528286208787528452828620818752845294829020805490971684179096558051600289900b815291820192909252815195995091947f783cca1c0412dd0d695e784568c96da2e9c22ff989357a2e8b1d9b2b4e6b71189281900390910190a45050509392505050565b306001600160a01b037f0000000000000000000000000000000000000000000000000000000000000000161461057b57600080fd5b565b6040805160a0810182526001600160a01b03878116808352878216602080850182905292881684860181905262ffffff888116606080880182905260028a810b6080998a01819052600080546001600160a01b03199081169099178155600180548a16891790558254909816861762ffffff60a01b1916600160a01b85021762ffffff60b81b1916600160b81b91830b9095160293909317909255875180870194909452838801929092528281019190915285518083039091018152930193849052825192909101919091209091610654906106ab565b8190604051809103906000f5905080158015610674573d6000803e3d6000fd5b50600080546001600160a01b0319908116909155600180549091169055600280546001600160d01b03191690559695505050505050565b61579d806106b98339019056fe6101606040523480156200001257600080fd5b503060601b60805260408051630890357360e41b81529051600091339163890357309160048082019260a092909190829003018186803b1580156200005657600080fd5b505afa1580156200006b573d6000803e3d6000fd5b505050506040513d60a08110156200008257600080fd5b508051602080830151604084015160608086015160809096015160e896871b6001600160e81b0319166101005291811b6001600160601b031990811660e05292811b831660c0529390931b1660a052600282810b900b90921b610120529150620000f79082906200010f811b62002adb17901c565b60801b6001600160801b03191661014052506200017d565b60008082600281900b620d89e719816200012557fe5b05029050600083600281900b620d89e8816200013d57fe5b0502905060008460020b83830360020b816200015557fe5b0560010190508062ffffff166001600160801b038016816200017357fe5b0495945050505050565b60805160601c60a05160601c60c05160601c60e05160601c6101005160e81c6101205160e81c6101405160801c6155536200024a60003980611fab5280614a525280614a89525080610bd852806128975280614abd5280614aef525080610cc7528061198852806119bf52806128df5250806111855280611a425280611eb152806123e652806128bb5280613d825250806108aa52806112b35280611a115280611e4b52806123605280613c39525080612038528061221f5280612873525080612b5252506155536000f3fe608060405234801561001057600080fd5b506004361061018e5760003560e01c806370cf754a116100de578063c45a015511610097578063ddca3f4311610071578063ddca3f43146107d8578063f3058399146107f8578063f30dba9314610800578063f637731d146108825761018e565b8063c45a0155146107a9578063d0c93a7c146107b1578063d21220a7146107d05761018e565b806370cf754a146105a05780638206a4d1146105a857806385b66729146105d0578063883bdbfd1461060d578063a34123a714610714578063a38807f21461074e5761018e565b80633850c7bd1161014b578063490e6cbc11610125578063490e6cbc1461044c5780634f1eb3d8146104d6578063514ea4bf146105275780635339c296146105805761018e565b80633850c7bd146103395780633c8a7d8d1461039257806346141319146104325761018e565b80630dfe168114610193578063128acb08146101b75780631a686502146102645780631ad8b03b14610288578063252c09d7146102bf57806332148f6714610316575b600080fd5b61019b6108a8565b604080516001600160a01b039092168252519081900360200190f35b61024b600480360360a08110156101cd57600080fd5b6001600160a01b0382358116926020810135151592604082013592606083013516919081019060a081016080820135600160201b81111561020d57600080fd5b82018360208201111561021f57600080fd5b803590602001918460018302840111600160201b8311171561024057600080fd5b5090925090506108cc565b6040805192835260208301919091528051918290030190f35b61026c61146b565b604080516001600160801b039092168252519081900360200190f35b61029061147a565b60405180836001600160801b03168152602001826001600160801b031681526020019250505060405180910390f35b6102dc600480360360208110156102d557600080fd5b5035611494565b6040805163ffffffff909516855260069390930b60208501526001600160a01b039091168383015215156060830152519081900360800190f35b6103376004803603602081101561032c57600080fd5b503561ffff166114d9565b005b6103416115d3565b604080516001600160a01b03909816885260029690960b602088015261ffff9485168787015292841660608701529216608085015260ff90911660a0840152151560c0830152519081900360e00190f35b61024b600480360360a08110156103a857600080fd5b6001600160a01b03823516916020810135600290810b92604083013590910b916001600160801b036060820135169181019060a081016080820135600160201b8111156103f457600080fd5b82018360208201111561040657600080fd5b803590602001918460018302840111600160201b8311171561042757600080fd5b509092509050611623565b61043a6118df565b60408051918252519081900360200190f35b6103376004803603608081101561046257600080fd5b6001600160a01b038235169160208101359160408201359190810190608081016060820135600160201b81111561049857600080fd5b8201836020820111156104aa57600080fd5b803590602001918460018302840111600160201b831117156104cb57600080fd5b5090925090506118e5565b610290600480360360a08110156104ec57600080fd5b506001600160a01b03813516906020810135600290810b91604081013590910b906001600160801b0360608201358116916080013516611d40565b6105446004803603602081101561053d57600080fd5b5035611f5a565b604080516001600160801b0396871681526020810195909552848101939093529084166060840152909216608082015290519081900360a00190f35b61043a6004803603602081101561059657600080fd5b503560010b611f97565b61026c611fa9565b610337600480360360408110156105be57600080fd5b5060ff81358116916020013516611fcd565b610290600480360360608110156105e657600080fd5b506001600160a01b03813516906001600160801b03602082013581169160400135166121b1565b61067b6004803603602081101561062357600080fd5b810190602081018135600160201b81111561063d57600080fd5b82018360208201111561064f57600080fd5b803590602001918460208302840111600160201b8311171561067057600080fd5b50909250905061247e565b604051808060200180602001838103835285818151815260200191508051906020019060200280838360005b838110156106bf5781810151838201526020016106a7565b50505050905001838103825284818151815260200191508051906020019060200280838360005b838110156106fe5781810151838201526020016106e6565b5050505090500194505050505060405180910390f35b61024b6004803603606081101561072a57600080fd5b508035600290810b91602081013590910b90604001356001600160801b031661250b565b6107786004803603604081101561076457600080fd5b508035600290810b9160200135900b612682565b6040805160069490940b84526001600160a01b03909216602084015263ffffffff1682820152519081900360600190f35b61019b612871565b6107b9612895565b6040805160029290920b8252519081900360200190f35b61019b6128b9565b6107e06128dd565b6040805162ffffff9092168252519081900360200190f35b61043a612901565b6108206004803603602081101561081657600080fd5b503560020b612907565b604080516001600160801b039099168952600f9790970b602089015287870195909552606087019390935260069190910b60808601526001600160a01b031660a085015263ffffffff1660c0840152151560e083015251908190036101000190f35b6103376004803603602081101561089857600080fd5b50356001600160a01b0316612971565b7f000000000000000000000000000000000000000000000000000000000000000081565b6000806108d7612b47565b8561090e576040805162461bcd60e51b8152602060048201526002602482015261415360f01b604482015290519081900360640190fd5b6040805160e0810182526000546001600160a01b0381168252600160a01b8104600290810b810b900b602083015261ffff600160b81b8204811693830193909352600160c81b810483166060830152600160d81b8104909216608082015260ff600160e81b8304811660a0830152600160f01b909204909116151560c082018190526109c7576040805162461bcd60e51b81526020600482015260036024820152624c4f4b60e81b604482015290519081900360640190fd5b87610a125780600001516001600160a01b0316866001600160a01b0316118015610a0d575073fffd8963efd1fc6a506488495d951d5263988d266001600160a01b038716105b610a44565b80600001516001600160a01b0316866001600160a01b0316108015610a4457506401000276a36001600160a01b038716115b610a7b576040805162461bcd60e51b815260206004820152600360248201526214d41360ea1b604482015290519081900360640190fd5b6000805460ff60f01b191681556040805160c08101909152808a610aaa5760048460a0015160ff16901c610abd565b60108460a0015160ff1681610abb57fe5b065b60ff1681526004546001600160801b03166020820152604001610ade612b7e565b63ffffffff168152602001600060060b815260200160006001600160a01b031681526020016000151581525090506000808913905060006040518060e001604052808b81526020016000815260200185600001516001600160a01b03168152602001856020015160020b81526020018c610b5a57600254610b5e565b6001545b815260200160006001600160801b0316815260200184602001516001600160801b031681525090505b805115801590610bad5750886001600160a01b031681604001516001600160a01b031614155b15610f7757610bba6154ba565b60408201516001600160a01b031681526060820151610bfd906006907f00000000000000000000000000000000000000000000000000000000000000008f612b82565b15156040830152600290810b810b60208301819052620d89e719910b1215610c2e57620d89e7196020820152610c4d565b6020810151620d89e860029190910b1315610c4d57620d89e860208201525b610c5a8160200151612cca565b6001600160a01b031660608201526040820151610ceb908d610c94578b6001600160a01b031683606001516001600160a01b031611610cae565b8b6001600160a01b031683606001516001600160a01b0316105b610cbc578260600151610cbe565b8b5b60c085015185517f0000000000000000000000000000000000000000000000000000000000000000612ffb565b60c085015260a084015260808301526001600160a01b031660408301528215610d4d57610d218160c001518260800151016131ed565b825103825260a0810151610d4390610d38906131ed565b602084015190613203565b6020830152610d88565b610d5a8160a001516131ed565b825101825260c08101516080820151610d8291610d7791016131ed565b60208401519061321f565b60208301525b835160ff1615610dce576000846000015160ff168260c0015181610da857fe5b60c0840180519290910491829003905260a0840180519091016001600160801b03169052505b60c08201516001600160801b031615610e0d57610e018160c00151600160801b8460c001516001600160801b0316613235565b60808301805190910190525b80606001516001600160a01b031682604001516001600160a01b03161415610f3657806040015115610f0d578360a00151610e9757610e75846040015160008760200151886040015188602001518a6060015160086132e5909695949392919063ffffffff16565b6001600160a01b03166080860152600690810b900b6060850152600160a08501525b6000610ee382602001518e610eae57600154610eb4565b84608001515b8f610ec3578560800151610ec7565b6002545b608089015160608a015160408b01516005959493929190613477565b90508c15610eef576000035b610efd8360c0015182613531565b6001600160801b031660c0840152505b8b610f1c578060200151610f25565b60018160200151035b600290810b900b6060830152610f71565b80600001516001600160a01b031682604001516001600160a01b031614610f7157610f6482604001516135e7565b600290810b900b60608301525b50610b87565b836020015160020b816060015160020b1461104557600080610fc586604001518660400151886020015188602001518a606001518b608001516008613902909695949392919063ffffffff16565b604085015160608601516000805461ffff60c81b1916600160c81b61ffff958616021761ffff60b81b1916600160b81b95909416949094029290921762ffffff60a01b1916600160a01b62ffffff60029490940b9390931692909202919091176001600160a01b0319166001600160a01b039091161790555061106a9050565b6040810151600080546001600160a01b0319166001600160a01b039092169190911790555b8060c001516001600160801b031683602001516001600160801b0316146110b05760c0810151600480546001600160801b0319166001600160801b039092169190911790555b8a1561110057608081015160015560a08101516001600160801b0316156110fb5760a0810151600380546001600160801b031981166001600160801b03918216909301169190911790555b611146565b608081015160025560a08101516001600160801b0316156111465760a0810151600380546001600160801b03808216600160801b92839004821690940116029190911790555b8115158b15151461115f57602081015181518b0361116c565b80600001518a0381602001515b90965094508a156112a55760008512156111ae576111ae7f00000000000000000000000000000000000000000000000000000000000000008d87600003613a9d565b60006111b8613beb565b9050336001600160a01b031663fa461e3388888c8c6040518563ffffffff1660e01b815260040180858152602001848152602001806020018281038252848482818152602001925080828437600081840152601f19601f82011690508083019250505095505050505050600060405180830381600087803b15801561123c57600080fd5b505af1158015611250573d6000803e3d6000fd5b5050505061125c613beb565b6112668289613d24565b111561129f576040805162461bcd60e51b815260206004820152600360248201526249494160e81b604482015290519081900360640190fd5b506113cf565b60008612156112dc576112dc7f00000000000000000000000000000000000000000000000000000000000000008d88600003613a9d565b60006112e6613d34565b9050336001600160a01b031663fa461e3388888c8c6040518563ffffffff1660e01b815260040180858152602001848152602001806020018281038252848482818152602001925080828437600081840152601f19601f82011690508083019250505095505050505050600060405180830381600087803b15801561136a57600080fd5b505af115801561137e573d6000803e3d6000fd5b5050505061138a613d34565b6113948288613d24565b11156113cd576040805162461bcd60e51b815260206004820152600360248201526249494160e81b604482015290519081900360640190fd5b505b60408082015160c083015160608085015184518b8152602081018b90526001600160a01b03948516818701526001600160801b039093169183019190915260020b60808201529151908e169133917fc42079f94a6350d7e6235f29174924f928cc2ac818eb64fed8004e115fbcca679181900360a00190a350506000805460ff60f01b1916600160f01b17905550919890975095505050505050565b6004546001600160801b031681565b6003546001600160801b0380821691600160801b90041682565b60088161ffff81106114a557600080fd5b015463ffffffff81169150600160201b810460060b90600160581b81046001600160a01b031690600160f81b900460ff1684565b600054600160f01b900460ff1661151d576040805162461bcd60e51b81526020600482015260036024820152624c4f4b60e81b604482015290519081900360640190fd5b6000805460ff60f01b19169055611532612b47565b60008054600160d81b900461ffff169061154e60088385613dcc565b6000805461ffff808416600160d81b810261ffff60d81b19909316929092179092559192508316146115bb576040805161ffff80851682528316602082015281517fac49e518f90a358f652e4400164f05a5d8f7e35e7747279bc3a93dbf584e125a929181900390910190a15b50506000805460ff60f01b1916600160f01b17905550565b6000546001600160a01b03811690600160a01b810460020b9061ffff600160b81b8204811691600160c81b8104821691600160d81b8204169060ff600160e81b8204811691600160f01b90041687565b600080548190600160f01b900460ff1661166a576040805162461bcd60e51b81526020600482015260036024820152624c4f4b60e81b604482015290519081900360640190fd5b6000805460ff60f01b191690556001600160801b03851661168a57600080fd5b6000806116d860405180608001604052808c6001600160a01b031681526020018b60020b81526020018a60020b81526020016116ce8a6001600160801b0316613e6f565b600f0b9052613e80565b925092505081935080925060008060008611156116fa576116f7613beb565b91505b841561170b57611708613d34565b90505b336001600160a01b031663d348799787878b8b6040518563ffffffff1660e01b815260040180858152602001848152602001806020018281038252848482818152602001925080828437600081840152601f19601f82011690508083019250505095505050505050600060405180830381600087803b15801561178d57600080fd5b505af11580156117a1573d6000803e3d6000fd5b5050505060008611156117f8576117b6613beb565b6117c08388613d24565b11156117f8576040805162461bcd60e51b815260206004820152600260248201526104d360f41b604482015290519081900360640190fd5b841561184857611806613d34565b6118108287613d24565b1115611848576040805162461bcd60e51b81526020600482015260026024820152614d3160f01b604482015290519081900360640190fd5b8960020b8b60020b8d6001600160a01b03167f7a53080ba414158be7ec69b987b5fb7d07dee101fe85488f0853ae16239d0bde338d8b8b60405180856001600160a01b03168152602001846001600160801b0316815260200183815260200182815260200194505050505060405180910390a450506000805460ff60f01b1916600160f01b17905550919890975095505050505050565b60025481565b600054600160f01b900460ff16611929576040805162461bcd60e51b81526020600482015260036024820152624c4f4b60e81b604482015290519081900360640190fd5b6000805460ff60f01b1916905561193e612b47565b6004546001600160801b031680611980576040805162461bcd60e51b81526020600482015260016024820152601360fa1b604482015290519081900360640190fd5b60006119b5867f000000000000000000000000000000000000000000000000000000000000000062ffffff16620f42406140c0565b905060006119ec867f000000000000000000000000000000000000000000000000000000000000000062ffffff16620f42406140c0565b905060006119f8613beb565b90506000611a04613d34565b90508815611a3757611a377f00000000000000000000000000000000000000000000000000000000000000008b8b613a9d565b8715611a6857611a687f00000000000000000000000000000000000000000000000000000000000000008b8a613a9d565b336001600160a01b031663e9cbafb085858a8a6040518563ffffffff1660e01b815260040180858152602001848152602001806020018281038252848482818152602001925080828437600081840152601f19601f82011690508083019250505095505050505050600060405180830381600087803b158015611aea57600080fd5b505af1158015611afe573d6000803e3d6000fd5b505050506000611b0c613beb565b90506000611b18613d34565b905081611b258588613d24565b1115611b5d576040805162461bcd60e51b8152602060048201526002602482015261046360f41b604482015290519081900360640190fd5b80611b688487613d24565b1115611ba0576040805162461bcd60e51b8152602060048201526002602482015261463160f01b604482015290519081900360640190fd5b8382038382038115611c2f5760008054600160e81b9004600f16908115611bd3578160ff168481611bcd57fe5b04611bd6565b60005b90506001600160801b03811615611c0957600380546001600160801b038082168401166001600160801b03199091161790555b611c23818503600160801b8d6001600160801b0316613235565b60018054909101905550505b8015611cba5760008054600160e81b900460041c600f16908115611c5f578160ff168381611c5957fe5b04611c62565b60005b90506001600160801b03811615611c9457600380546001600160801b03600160801b8083048216850182160291161790555b611cae818403600160801b8d6001600160801b0316613235565b60028054909101905550505b8d6001600160a01b0316336001600160a01b03167fbdbdb71d7860376ba52b25a5028beea23581364a40522f6bcfb86bb1f2dca6338f8f86866040518085815260200184815260200183815260200182815260200194505050505060405180910390a350506000805460ff60f01b1916600160f01b179055505050505050505050505050565b600080548190600160f01b900460ff16611d87576040805162461bcd60e51b81526020600482015260036024820152624c4f4b60e81b604482015290519081900360640190fd5b6000805460ff60f01b19168155611da160073389896140fa565b60038101549091506001600160801b0390811690861611611dc25784611dd1565b60038101546001600160801b03165b60038201549093506001600160801b03600160801b909104811690851611611df95783611e0f565b6003810154600160801b90046001600160801b03165b91506001600160801b03831615611e74576003810180546001600160801b031981166001600160801b03918216869003821617909155611e74907f0000000000000000000000000000000000000000000000000000000000000000908a908616613a9d565b6001600160801b03821615611eda576003810180546001600160801b03600160801b808304821686900382160291811691909117909155611eda907f0000000000000000000000000000000000000000000000000000000000000000908a908516613a9d565b604080516001600160a01b038a1681526001600160801b0380861660208301528416818301529051600288810b92908a900b9133917f70935338e69775456a85ddef226c395fb668b63fa0115f5f20610b388e6ca9c0919081900360600190a4506000805460ff60f01b1916600160f01b17905590969095509350505050565b60076020526000908152604090208054600182015460028301546003909301546001600160801b0392831693919281811691600160801b90041685565b60066020526000908152604090205481565b7f000000000000000000000000000000000000000000000000000000000000000081565b600054600160f01b900460ff16612011576040805162461bcd60e51b81526020600482015260036024820152624c4f4b60e81b604482015290519081900360640190fd5b6000805460ff60f01b1916905560408051638da5cb5b60e01b815290516001600160a01b037f00000000000000000000000000000000000000000000000000000000000000001691638da5cb5b916004808301926020929190829003018186803b15801561207e57600080fd5b505afa158015612092573d6000803e3d6000fd5b505050506040513d60208110156120a857600080fd5b50516001600160a01b031633146120be57600080fd5b60ff821615806120e1575060048260ff16101580156120e15750600a8260ff1611155b801561210b575060ff8116158061210b575060048160ff161015801561210b5750600a8160ff1611155b61211457600080fd5b60008054610ff0600484901b16840160ff908116600160e81b90810260ff60e81b19841617909355919004167f973d8d92bb299f4af6ce49b52a8adb85ae46b9f214c4c4fc06ac77401237b1336010826040805160ff9390920683168252600f600486901c16602083015286831682820152918516606082015290519081900360800190a150506000805460ff60f01b1916600160f01b17905550565b600080548190600160f01b900460ff166121f8576040805162461bcd60e51b81526020600482015260036024820152624c4f4b60e81b604482015290519081900360640190fd5b6000805460ff60f01b1916905560408051638da5cb5b60e01b815290516001600160a01b037f00000000000000000000000000000000000000000000000000000000000000001691638da5cb5b916004808301926020929190829003018186803b15801561226557600080fd5b505afa158015612279573d6000803e3d6000fd5b505050506040513d602081101561228f57600080fd5b50516001600160a01b031633146122a557600080fd5b6003546001600160801b03908116908516116122c157836122ce565b6003546001600160801b03165b6003549092506001600160801b03600160801b9091048116908416116122f45782612308565b600354600160801b90046001600160801b03165b90506001600160801b03821615612389576003546001600160801b038381169116141561233757600019909101905b600380546001600160801b031981166001600160801b03918216859003821617909155612389907f00000000000000000000000000000000000000000000000000000000000000009087908516613a9d565b6001600160801b0381161561240f576003546001600160801b03828116600160801b9092041614156123ba57600019015b600380546001600160801b03600160801b80830482168590038216029181169190911790915561240f907f00000000000000000000000000000000000000000000000000000000000000009087908416613a9d565b604080516001600160801b0380851682528316602082015281516001600160a01b0388169233927f596b573906218d3411850b26a6b437d6c4522fdb43d2d2386263f86d50b8b151929081900390910190a36000805460ff60f01b1916600160f01b1790559094909350915050565b606080612489612b47565b612500612494612b7e565b858580806020026020016040519081016040528093929190818152602001838360200280828437600092018290525054600454600896959450600160a01b820460020b935061ffff600160b81b8304811693506001600160801b0390911691600160c81b90041661415e565b915091509250929050565b600080548190600160f01b900460ff16612552576040805162461bcd60e51b81526020600482015260036024820152624c4f4b60e81b604482015290519081900360640190fd5b6000805460ff60f01b1916815560408051608081018252338152600288810b602083015287900b91810191909152819081906125ab906060810161259e6001600160801b038a16613e6f565b600003600f0b9052613e80565b92509250925081600003945080600003935060008511806125cc5750600084115b1561260b576003830180546001600160801b038082168089018216600160801b93849004831689019092169092029091176001600160801b0319161790555b604080516001600160801b0388168152602081018790528082018690529051600289810b92908b900b9133917f0c396cd989a39f4459b5fa1aed6a9a8dcdbc45908acfd67e028cd568da98982c919081900360600190a450506000805460ff60f01b1916600160f01b179055509094909350915050565b600080600061268f612b47565b61269985856142b8565b600285810b810b60009081526005602052604080822087840b90930b825281206003830154600681900b93600160381b82046001600160a01b0316928492600160d81b810463ffffffff169284929091600160f81b900460ff16806126fd57600080fd5b6003820154600681900b9850600160381b81046001600160a01b03169650600160d81b810463ffffffff169450600160f81b900460ff168061273e57600080fd5b50506040805160e0810182526000546001600160a01b0381168252600160a01b8104600290810b810b810b6020840181905261ffff600160b81b8404811695850195909552600160c81b830485166060850152600160d81b8304909416608084015260ff600160e81b8304811660a0850152600160f01b909204909116151560c08301529093508e810b91900b121590506127e75750939094039650900393509003905061286a565b8a60020b816020015160020b121561285b576000612803612b7e565b6020830151604084015160045460608601519394506000938493612839936008938893879392916001600160801b0316906132e5565b9a9003989098039b50509490960392909203965090910303925061286a915050565b50949093039650039350900390505b9250925092565b7f000000000000000000000000000000000000000000000000000000000000000081565b7f000000000000000000000000000000000000000000000000000000000000000081565b7f000000000000000000000000000000000000000000000000000000000000000081565b7f000000000000000000000000000000000000000000000000000000000000000081565b60015481565b60056020526000908152604090208054600182015460028301546003909301546001600160801b03831693600160801b909304600f0b9290600681900b90600160381b81046001600160a01b031690600160d81b810463ffffffff1690600160f81b900460ff1688565b6000546001600160a01b0316156129b4576040805162461bcd60e51b8152602060048201526002602482015261414960f01b604482015290519081900360640190fd5b60006129bf826135e7565b90506000806129d76129cf612b7e565b600890614381565b6040805160e0810182526001600160a01b038816808252600288810b6020808501829052600085870181905261ffff898116606088018190529089166080880181905260a08801839052600160c0909801979097528154600160f01b6001600160a01b0319909116871762ffffff60a01b1916600160a01b62ffffff9787900b97909716969096029590951763ffffffff60b81b1916600160c81b9091021761ffff60d81b1916600160d81b9096029590951761ffff60e81b191692909217909355835191825281019190915281519395509193507f98636036cb66a9c19a37435efc1e90142190214e8abeb821bdba3f2990dd4c9592918290030190a150505050565b60008082600281900b620d89e71981612af057fe5b05029050600083600281900b620d89e881612b0757fe5b0502905060008460020b83830360020b81612b1e57fe5b0560010190508062ffffff166001600160801b03801681612b3b57fe5b0493505050505b919050565b306001600160a01b037f00000000000000000000000000000000000000000000000000000000000000001614612b7c57600080fd5b565b4290565b60008060008460020b8660020b81612b9657fe5b05905060008660020b128015612bbd57508460020b8660020b81612bb657fe5b0760020b15155b15612bc757600019015b8315612c3f57600080612bd9836143cd565b600182810b810b600090815260208d9052604090205460ff83169190911b80016000190190811680151597509294509092509085612c1e57888360ff16860302612c34565b88612c28826143de565b60ff168460ff16038603025b965050505050612cc0565b600080612c4e836001016143cd565b91509150600060018260ff166001901b031990506000818b60008660010b60010b8152602001908152602001600020541690508060001415955085612ca05760ff808416900385016001018902612cb9565b888360ff16612cae8361447d565b60ff16038660010101025b9650505050505b5094509492505050565b60008060008360020b12612ce1578260020b612ce9565b8260020b6000035b9050620d89e8811115612d27576040805162461bcd60e51b81526020600482015260016024820152601560fa1b604482015290519081900360640190fd5b600060018216612d3b57600160801b612d4d565b6ffffcb933bd6fad37aa2d162d1a5940015b70ffffffffffffffffffffffffffffffffff1690506002821615612d81576ffff97272373d413259a46990580e213a0260801c5b6004821615612da0576ffff2e50f5f656932ef12357cf3c7fdcc0260801c5b6008821615612dbf576fffe5caca7e10e4e61c3624eaa0941cd00260801c5b6010821615612dde576fffcb9843d60f6159c9db58835c9266440260801c5b6020821615612dfd576fff973b41fa98c081472e6896dfb254c00260801c5b6040821615612e1c576fff2ea16466c96a3843ec78b326b528610260801c5b6080821615612e3b576ffe5dee046a99a2a811c461f1969c30530260801c5b610100821615612e5b576ffcbe86c7900a88aedcffc83b479aa3a40260801c5b610200821615612e7b576ff987a7253ac413176f2b074cf7815e540260801c5b610400821615612e9b576ff3392b0822b70005940c7a398e4b70f30260801c5b610800821615612ebb576fe7159475a2c29b7443b29c7fa6e889d90260801c5b611000821615612edb576fd097f3bdfd2022b8845ad8f792aa58250260801c5b612000821615612efb576fa9f746462d870fdf8a65dc1f90e061e50260801c5b614000821615612f1b576f70d869a156d2a1b890bb3df62baf32f70260801c5b618000821615612f3b576f31be135f97d08fd981231505542fcfa60260801c5b62010000821615612f5c576f09aa508b5b7a84e1c677de54f3e99bc90260801c5b62020000821615612f7c576e5d6af8dedb81196699c329225ee6040260801c5b62040000821615612f9b576d2216e584f5fa1ea926041bedfe980260801c5b62080000821615612fb8576b048a170391f7dc42444e8fa20260801c5b60008460020b1315612fd3578060001981612fcf57fe5b0490505b600160201b810615612fe6576001612fe9565b60005b60ff16602082901c0192505050919050565b60008080806001600160a01b03808916908a1610158187128015906130805760006130348989620f42400362ffffff16620f4240613235565b90508261304d576130488c8c8c6001614567565b61305a565b61305a8b8d8c60016145e2565b955085811061306b578a965061307a565b6130778c8b838661468d565b96505b506130ca565b81613097576130928b8b8b60006145e2565b6130a4565b6130a48a8c8b6000614567565b93508388600003106130b8578995506130ca565b6130c78b8a8a600003856146d9565b95505b6001600160a01b038a811690871614821561312d578080156130e95750815b6130ff576130fa878d8c60016145e2565b613101565b855b955080801561310e575081155b6131245761311f878d8c6000614567565b613126565b845b9450613177565b8080156131375750815b61314d576131488c888c6001614567565b61314f565b855b955080801561315c575081155b6131725761316d8c888c60006145e2565b613174565b845b94505b8115801561318757508860000385115b15613193578860000394505b8180156131b257508a6001600160a01b0316876001600160a01b031614155b156131c15785890393506131de565b6131db868962ffffff168a620f42400362ffffff166140c0565b93505b50505095509550955095915050565b6000600160ff1b82106131ff57600080fd5b5090565b8082038281131560008312151461321957600080fd5b92915050565b8181018281121560008312151461321957600080fd5b600080806000198587098686029250828110908390030390508061326b576000841161326057600080fd5b5082900490506132de565b80841161327757600080fd5b6000848688096000868103871696879004966002600389028118808a02820302808a02820302808a02820302808a02820302808a02820302808a02909103029181900381900460010186841190950394909402919094039290920491909117919091029150505b9392505050565b60008063ffffffff871661338b576000898661ffff1661ffff811061330657fe5b60408051608081018252919092015463ffffffff808216808452600160201b8304600690810b810b900b6020850152600160581b83046001600160a01b031694840194909452600160f81b90910460ff16151560608301529092508a161461337757613374818a8988614725565b90505b80602001518160400151925092505061346b565b8688036000806133a08c8c858c8c8c8c6147c8565b91509150816000015163ffffffff168363ffffffff1614156133d257816020015182604001519450945050505061346b565b805163ffffffff848116911614156133fa57806020015181604001519450945050505061346b565b8151815160208085015190840151918390039286039163ffffffff80841692908516910360060b8161342857fe5b05028460200151018263ffffffff168263ffffffff1686604001518660400151036001600160a01b0316028161345a57fe5b048560400151019650965050505050505b97509795505050505050565b600295860b860b60009081526020979097526040909620600181018054909503909455938301805490920390915560038201805463ffffffff600160d81b6001600160a01b03600160381b808504821690960316909402600160381b600160d81b031990921691909117600681810b90960390950b66ffffffffffffff1666ffffffffffffff199095169490941782810485169095039093160263ffffffff60d81b1990931692909217905554600160801b9004600f0b90565b60008082600f0b121561359657826001600160801b03168260000384039150816001600160801b031610613591576040805162461bcd60e51b81526020600482015260026024820152614c5360f01b604482015290519081900360640190fd5b613219565b826001600160801b03168284019150816001600160801b03161015613219576040805162461bcd60e51b81526020600482015260026024820152614c4160f01b604482015290519081900360640190fd5b60006401000276a36001600160a01b03831610801590613623575073fffd8963efd1fc6a506488495d951d5263988d266001600160a01b038316105b613658576040805162461bcd60e51b81526020600482015260016024820152602960f91b604482015290519081900360640190fd5b640100000000600160c01b03602083901b166001600160801b03811160071b81811c67ffffffffffffffff811160061b90811c63ffffffff811160051b90811c61ffff811160041b90811c60ff8111600390811b91821c600f811160021b90811c918211600190811b92831c979088119617909417909217179091171717608081106136ec57607f810383901c91506136f6565b80607f0383901b91505b908002607f81811c60ff83811c9190911c800280831c81831c1c800280841c81841c1c800280851c81851c1c800280861c81861c1c800280871c81871c1c800280881c81881c1c800280891c81891c1c8002808a1c818a1c1c8002808b1c818b1c1c8002808c1c818c1c1c8002808d1c818d1c1c8002808e1c9c81901c9c909c1c80029c8d901c9e9d607f198f0160401b60c09190911c678000000000000000161760c19b909b1c674000000000000000169a909a1760c29990991c672000000000000000169890981760c39790971c671000000000000000169690961760c49590951c670800000000000000169490941760c59390931c670400000000000000169290921760c69190911c670200000000000000161760c79190911c600160381b161760c89190911c6680000000000000161760c99190911c6640000000000000161760ca9190911c6620000000000000161760cb9190911c6610000000000000161760cc9190911c6608000000000000161760cd9190911c66040000000000001617693627a301d71055774c8581026f028f6481ab7f045a5af012a19d003aa9198101608090811d906fdb2df09e81959a81455e260799a0632f8301901d600281810b9083900b146138f357886001600160a01b03166138d782612cca565b6001600160a01b031611156138ec57816138ee565b805b6138f5565b815b9998505050505050505050565b6000806000898961ffff1661ffff811061391857fe5b60408051608081018252919092015463ffffffff808216808452600160201b8304600690810b810b900b6020850152600160581b83046001600160a01b031694840194909452600160f81b90910460ff161515606083015290925089161415613987578885925092505061346b565b8461ffff168461ffff161180156139a857506001850361ffff168961ffff16145b156139b5578391506139b9565b8491505b8161ffff168960010161ffff16816139cd57fe5b0692506139dc81898989614725565b8a8461ffff1661ffff81106139ed57fe5b825191018054602084015160408501516060909501511515600160f81b026001600160f81b036001600160a01b03909616600160581b027fff0000000000000000000000000000000000000000ffffffffffffffffffffff60069390930b66ffffffffffffff16600160201b026affffffffffffff000000001963ffffffff90971663ffffffff199095169490941795909516929092171692909217929092161790555097509795505050505050565b604080516001600160a01b038481166024830152604480830185905283518084039091018152606490920183526020820180516001600160e01b031663a9059cbb60e01b1781529251825160009485949389169392918291908083835b60208310613b195780518252601f199092019160209182019101613afa565b6001836020036101000a0380198251168184511680821785525050505050509050019150506000604051808303816000865af19150503d8060008114613b7b576040519150601f19603f3d011682016040523d82523d6000602084013e613b80565b606091505b5091509150818015613bae575080511580613bae5750808060200190516020811015613bab57600080fd5b50515b613be4576040805162461bcd60e51b81526020600482015260026024820152612a2360f11b604482015290519081900360640190fd5b5050505050565b604080513060248083019190915282518083039091018152604490910182526020810180516001600160e01b03166370a0823160e01b17815291518151600093849384936001600160a01b037f00000000000000000000000000000000000000000000000000000000000000001693919290918291908083835b60208310613c845780518252601f199092019160209182019101613c65565b6001836020036101000a038019825116818451168082178552505050505050905001915050600060405180830381855afa9150503d8060008114613ce4576040519150601f19603f3d011682016040523d82523d6000602084013e613ce9565b606091505b5091509150818015613cfd57506020815110155b613d0657600080fd5b808060200190516020811015613d1b57600080fd5b50519250505090565b8082018281101561321957600080fd5b604080513060248083019190915282518083039091018152604490910182526020810180516001600160e01b03166370a0823160e01b17815291518151600093849384936001600160a01b037f000000000000000000000000000000000000000000000000000000000000000016939192909182919080838360208310613c845780518252601f199092019160209182019101613c65565b6000808361ffff1611613e0a576040805162461bcd60e51b81526020600482015260016024820152604960f81b604482015290519081900360640190fd5b8261ffff168261ffff1611613e205750816132de565b825b8261ffff168161ffff161015613e66576001858261ffff1661ffff8110613e4557fe5b01805463ffffffff191663ffffffff92909216919091179055600101613e22565b50909392505050565b80600f81900b8114612b4257600080fd5b6000806000613e8d612b47565b613e9f846020015185604001516142b8565b6040805160e0810182526000546001600160a01b0381168252600160a01b8104600290810b810b900b602080840182905261ffff600160b81b8404811685870152600160c81b84048116606080870191909152600160d81b8504909116608086015260ff600160e81b8504811660a0870152600160f01b909404909316151560c085015288519089015194890151928901519394613f4394919390929091906149c2565b93508460600151600f0b6000146140b857846020015160020b816020015160020b1215613f9857613f91613f7a8660200151612cca565b613f878760400151612cca565b8760600151614b77565b92506140b8565b846040015160020b816020015160020b121561408e5760045460408201516001600160801b0390911690613fea90613fce612b7e565b6020850151606086015160808701516008949392918791613902565b6000805461ffff60c81b1916600160c81b61ffff938416021761ffff60b81b1916600160b81b93909216929092021790558151604087015161403a919061403090612cca565b8860600151614b77565b935061405861404c8760200151612cca565b83516060890151614bbb565b9250614068818760600151613531565b600480546001600160801b0319166001600160801b0392909216919091179055506140b8565b6140b561409e8660200151612cca565b6140ab8760400151612cca565b8760600151614bbb565b91505b509193909250565b60006140cd848484613235565b9050600082806140d957fe5b84860911156132de5760001981106140f057600080fd5b6001019392505050565b6040805160609490941b6bffffffffffffffffffffffff1916602080860191909152600293840b60e890811b60348701529290930b90911b60378401528051808403601a018152603a90930181528251928201929092206000908152929052902090565b60608060008361ffff161161419e576040805162461bcd60e51b81526020600482015260016024820152604960f81b604482015290519081900360640190fd5b865167ffffffffffffffff811180156141b657600080fd5b506040519080825280602002602001820160405280156141e0578160200160208202803683370190505b509150865167ffffffffffffffff811180156141fb57600080fd5b50604051908082528060200260200182016040528015614225578160200160208202803683370190505b50905060005b87518110156142ab576142568a8a8a848151811061424557fe5b60200260200101518a8a8a8a6132e5565b84838151811061426257fe5b6020026020010184848151811061427557fe5b60200260200101826001600160a01b03166001600160a01b03168152508260060b60060b8152505050808060010191505061422b565b5097509795505050505050565b8060020b8260020b126142f8576040805162461bcd60e51b8152602060048201526003602482015262544c5560e81b604482015290519081900360640190fd5b620d89e719600283900b121561433b576040805162461bcd60e51b8152602060048201526003602482015262544c4d60e81b604482015290519081900360640190fd5b620d89e8600282900b131561437d576040805162461bcd60e51b815260206004820152600360248201526254554d60e81b604482015290519081900360640190fd5b5050565b6040805160808101825263ffffffff9283168082526000602083018190529282019290925260016060909101819052835463ffffffff1916909117909116600160f81b17909155908190565b600281900b60081d9160ff90911690565b60008082116143ec57600080fd5b600160801b82106143ff57608091821c91015b68010000000000000000821061441757604091821c91015b600160201b821061442a57602091821c91015b62010000821061443c57601091821c91015b610100821061444d57600891821c91015b6010821061445d57600491821c91015b6004821061446d57600291821c91015b60028210612b4257600101919050565b600080821161448b57600080fd5b5060ff6001600160801b038216156144a657607f19016144ae565b608082901c91505b67ffffffffffffffff8216156144c757603f19016144cf565b604082901c91505b63ffffffff8216156144e457601f19016144ec565b602082901c91505b61ffff8216156144ff57600f1901614507565b601082901c91505b60ff8216156145195760071901614521565b600882901c91505b600f821615614533576003190161453b565b600482901c91505b600382161561454d5760011901614555565b600282901c91505b6001821615612b425760001901919050565b6000836001600160a01b0316856001600160a01b03161115614587579293925b816145b4576145af836001600160801b03168686036001600160a01b0316600160601b613235565b6145d7565b6145d7836001600160801b03168686036001600160a01b0316600160601b6140c0565b90505b949350505050565b6000836001600160a01b0316856001600160a01b03161115614602579293925b600160601b600160e01b03606084901b166001600160a01b03868603811690871661462c57600080fd5b8361465c57866001600160a01b031661464f8383896001600160a01b0316613235565b8161465657fe5b04614682565b6146826146738383896001600160a01b03166140c0565b886001600160a01b0316614bea565b979650505050505050565b600080856001600160a01b0316116146a457600080fd5b6000846001600160801b0316116146ba57600080fd5b816146cc576145af8585856001614bf5565b6145d78585856001614cd6565b600080856001600160a01b0316116146f057600080fd5b6000846001600160801b03161161470657600080fd5b81614718576145af8585856000614cd6565b6145d78585856000614bf5565b61472d6154f6565b600085600001518503905060405180608001604052808663ffffffff1681526020018263ffffffff168660020b0288602001510160060b81526020016000856001600160801b031611614781576001614783565b845b6001600160801b031663ffffffff60801b608085901b16816147a157fe5b048860400151016001600160a01b0316815260200160011515815250915050949350505050565b6147d06154f6565b6147d86154f6565b888561ffff1661ffff81106147e957fe5b60408051608081018252919092015463ffffffff8116808352600160201b8204600690810b810b900b6020840152600160581b82046001600160a01b031693830193909352600160f81b900460ff1615156060820152925061484d90899089614db9565b15614885578663ffffffff16826000015163ffffffff16141561486f5761346b565b8161487c83898988614725565b9150915061346b565b888361ffff168660010161ffff168161489a57fe5b0661ffff1661ffff81106148aa57fe5b60408051608081018252929091015463ffffffff81168352600160201b8104600690810b810b900b60208401526001600160a01b03600160581b8204169183019190915260ff600160f81b9091041615156060820181905290925061495f57604080516080810182528a5463ffffffff81168252600160201b8104600690810b810b900b6020830152600160581b81046001600160a01b031692820192909252600160f81b90910460ff161515606082015291505b61496e88836000015189614db9565b6149a5576040805162461bcd60e51b815260206004820152600360248201526213d31160ea1b604482015290519081900360640190fd5b6149b28989898887614e7a565b9150915097509795505050505050565b60006149d160078787876140fa565b60015460025491925090600080600f87900b15614b175760006149f2612b7e565b6000805460045492935090918291614a3c9160089186918591600160a01b810460020b9161ffff600160b81b83048116926001600160801b0390921691600160c81b9004166132e5565b9092509050614a7660058d8b8d8b8b87898b60007f0000000000000000000000000000000000000000000000000000000000000000615018565b9450614aad60058c8b8d8b8b87898b60017f0000000000000000000000000000000000000000000000000000000000000000615018565b93508415614ae157614ae160068d7f00000000000000000000000000000000000000000000000000000000000000006151d1565b8315614b1357614b1360068c7f00000000000000000000000000000000000000000000000000000000000000006151d1565b5050505b600080614b2960058c8c8b8a8a615237565b9092509050614b3a878a84846152e3565b600089600f0b1215614b68578315614b5757614b5760058c615478565b8215614b6857614b6860058b615478565b50505050505095945050505050565b60008082600f0b12614b9d57614b98614b9385858560016145e2565b6131ed565b6145da565b614bb0614b9385858560000360006145e2565b600003949350505050565b60008082600f0b12614bd757614b98614b938585856001614567565b614bb0614b938585856000036000614567565b808204910615150190565b60008115614c685760006001600160a01b03841115614c2b57614c2684600160601b876001600160801b0316613235565b614c43565b6001600160801b038516606085901b81614c4157fe5b045b9050614c60614c5b6001600160a01b03881683613d24565b6154a4565b9150506145da565b60006001600160a01b03841115614c9657614c9184600160601b876001600160801b03166140c0565b614cad565b614cad606085901b6001600160801b038716614bea565b905080866001600160a01b031611614cc457600080fd5b6001600160a01b0386160390506145da565b600082614ce45750836145da565b600160601b600160e01b03606085901b168215614d72576001600160a01b03861684810290858281614d1257fe5b041415614d4357818101828110614d4157614d3783896001600160a01b0316836140c0565b93505050506145da565b505b614d6982614d64878a6001600160a01b03168681614d5d57fe5b0490613d24565b614bea565b925050506145da565b6001600160a01b03861684810290858281614d8957fe5b04148015614d9657508082115b614d9f57600080fd5b808203614d37614c5b846001600160a01b038b16846140c0565b60008363ffffffff168363ffffffff1611158015614de357508363ffffffff168263ffffffff1611155b15614dff578163ffffffff168363ffffffff16111590506132de565b60008463ffffffff168463ffffffff1611614e26578363ffffffff16600160201b01614e2e565b8363ffffffff165b64ffffffffff16905060008563ffffffff168463ffffffff1611614e5e578363ffffffff16600160201b01614e66565b8363ffffffff165b64ffffffffff169091111595945050505050565b614e826154f6565b614e8a6154f6565b60008361ffff168560010161ffff1681614ea057fe5b0661ffff169050600060018561ffff16830103905060005b506002818301048961ffff87168281614ecd57fe5b0661ffff8110614ed957fe5b60408051608081018252929091015463ffffffff81168352600160201b8104600690810b810b900b60208401526001600160a01b03600160581b8204169183019190915260ff600160f81b90910416151560608201819052909550614f4357806001019250614eb8565b898661ffff168260010181614f5457fe5b0661ffff8110614f6057fe5b60408051608081018252929091015463ffffffff81168352600160201b8104600690810b810b900b60208401526001600160a01b03600160581b8204169183019190915260ff600160f81b90910416151560608201528551909450600090614fca908b908b614db9565b9050808015614fe35750614fe38a8a8760000151614db9565b15614fee575061500b565b80614ffe57600182039250615005565b8160010193505b50614eb8565b5050509550959350505050565b60028a810b900b600090815260208c90526040812080546001600160801b031682615043828d613531565b9050846001600160801b0316816001600160801b03161115615091576040805162461bcd60e51b81526020600482015260026024820152614c4f60f01b604482015290519081900360640190fd5b6001600160801b038281161590821615811415945015615136578c60020b8e60020b1361511e57600183018b9055600283018a9055600383018054600160381b600160d81b031916600160381b6001600160a01b038c16021766ffffffffffffff191666ffffffffffffff60068b900b161763ffffffff60d81b1916600160d81b63ffffffff8a16021790555b6003830180546001600160f81b0316600160f81b1790555b82546001600160801b0319166001600160801b0382161783558561517f57825461517a9061517590600160801b9004600f90810b810b908f900b61321f565b613e6f565b6151a0565b82546151a09061517590600160801b9004600f90810b810b908f900b613203565b8354600f9190910b6001600160801b03908116600160801b0291161790925550909c9b505050505050505050505050565b8060020b8260020b816151e057fe5b0760020b156151ee57600080fd5b6000806152098360020b8560020b8161520357fe5b056143cd565b600191820b820b60009081526020979097526040909620805460ff9097169190911b90951890945550505050565b600285810b80820b60009081526020899052604080822088850b850b83529082209193849391929184918291908a900b1261527d57505060018201546002830154615290565b8360010154880391508360020154870390505b6000808b60020b8b60020b12156152b2575050600183015460028401546152c5565b84600101548a0391508460020154890390505b92909803979097039b96909503949094039850939650505050505050565b6040805160a08101825285546001600160801b0390811682526001870154602083015260028701549282019290925260038601548083166060830152600160801b900490911660808201526000600f85900b6153825781516001600160801b031661537a576040805162461bcd60e51b815260206004820152600260248201526104e560f41b604482015290519081900360640190fd5b508051615391565b815161538e9086613531565b90505b60006153b58360200151860384600001516001600160801b0316600160801b613235565b905060006153db8460400151860385600001516001600160801b0316600160801b613235565b905086600f0b6000146154025787546001600160801b0319166001600160801b0384161788555b60018801869055600288018590556001600160801b03821615158061543057506000816001600160801b0316115b1561546e576003880180546001600160801b031981166001600160801b039182168501821617808216600160801b9182900483168501909216021790555b5050505050505050565b600290810b810b6000908152602092909252604082208281556001810183905590810182905560030155565b806001600160a01b0381168114612b4257600080fd5b6040805160e081018252600080825260208201819052918101829052606081018290526080810182905260a0810182905260c081019190915290565b6040805160808101825260008082526020820181905291810182905260608101919091529056fea2646970667358221220a0d1c210b4e634cf2761c7dca0dd3efb47e618b4985701a2a7568fe047dec05864736f6c63430007060033a2646970667358221220e257614273e6bdfae3303bba12272f365afea1f53269cf2f9785b44e6eca6a9c64736f6c63430007060033c66a3fdf07232cdd185febcc6579d408c241b47ae2f9907d84be655141eeaecc",
  "linkReferences": {},
  "deployedLinkReferences": {}
}